ARM Linker, 5.03 [Build 24] [MDK-ARM Standard]

==============================================================================

Section Cross References

    adc.o(.text) refers to stm32f10x_rcc.o(.text) for RCC_AHBPeriphClockCmd
    adc.o(.text) refers to stm32f10x_gpio.o(.text) for GPIO_Init
    adc.o(.text) refers to stm32f10x_adc.o(.text) for ADC_Init
    adc.o(.text) refers to rt_memclr_w.o(.text) for __aeabi_memclr4
    can.o(.text) refers to stm32f10x_rcc.o(.text) for RCC_APB2PeriphClockCmd
    can.o(.text) refers to stm32f10x_gpio.o(.text) for GPIO_Init
    can.o(.text) refers to stm32f10x_can.o(.text) for CAN_DeInit
    can.o(.text) refers to can.o(.bss) for CAN_FilterInitStructure
    can.o(.text) refers to variable.o(.data) for g_UrIndex
    i2c.o(.text) refers to stm32f10x_rcc.o(.text) for RCC_APB2PeriphClockCmd
    i2c.o(.text) refers to stm32f10x_gpio.o(.text) for GPIO_Init
    i2c.o(.text) refers to stm32f10x_i2c.o(.text) for I2C_DeInit
    intermit.o(.text) refers to stm32f10x_can.o(.text) for CAN_Receive
    intermit.o(.text) refers to stm32f10x_tim.o(.text) for TIM_GetITStatus
    intermit.o(.text) refers to variable.o(.data) for g_UrIndex
    nvic.o(.text) refers to misc.o(.text) for NVIC_SetVectorTable
    spi.o(.text) refers to stm32f10x_rcc.o(.text) for RCC_APB2PeriphClockCmd
    spi.o(.text) refers to stm32f10x_gpio.o(.text) for GPIO_Init
==============================================================================

Removing Unused input sections from the image.

    Removing can.o(.text), (320 bytes).
    Removing can.o(.bss), (14 bytes).
    Removing mydelay.o(.text), (70 bytes).
    Removing spi.o(.text), (520 bytes).
    Removing usart.o(.text), (672 bytes).
    Removing wdg.o(.data), (1 bytes).
    Removing ds18b20.o(.text), (540 bytes).
    Removing stm32f10x_bkp.o(.text), (196 bytes).
    Removing stm32f10x_cec.o(.text), (288 bytes).
    Removing stm32f10x_crc.o(.text), (72 bytes).
    Removing stm32f10x_dac.o(.text), (396 bytes).
    Removing stm32f10x_dbgmcu.o(.text), (48 bytes).
    Removing stm32f10x_dma.o(.text), (592 bytes).
    Removing stm32f10x_exti.o(.text), (284 bytes).
    Removing stm32f10x_fsmc.o(.text), (1560 bytes).
    Removing stm32f10x_pwr.o(.text), (204 bytes).
    Removing stm32f10x_rtc.o(.text), (324 bytes).
    Removing stm32f10x_sdio.o(.text), (472 bytes).
==============================================================================

Image Symbol Table

    Local Symbols

    Symbol Name                              Value     Ov Type        Size  Object(Section)

    ../clib/angel/boardlib.s                 0x00000000   Number         0  boardinit1.o ABSOLUTE
    ../clib/angel/boardlib.s                 0x00000000   Number         0  boardinit3.o ABSOLUTE
    ../clib/angel/boardlib.s                 0x00000000   Number         0  boardinit2.o ABSOLUTE
    ../clib/angel/boardlib.s                 0x00000000   Number         0  boardshut.o ABSOLUTE
    ../clib/angel/handlers.s                 0x00000000   Number         0  __scatter_copy.o ABSOLUTE
    ../clib/angel/handlers.s                 0x00000000   Number         0  __scatter_zi.o ABSOLUTE
    ../clib/angel/kernel.s                   0x00000000   Number         0  rtexit.o ABSOLUTE
    ../clib/angel/kernel.s                   0x00000000   Number         0  rtentry2.o ABSOLUTE
    ../clib/angel/kernel.s                   0x00000000   Number         0  rtexit2.o ABSOLUTE
    ../clib/angel/kernel.s                   0x00000000   Number         0  rtentry.o ABSOLUTE
    ../clib/angel/kernel.s                   0x00000000   Number         0  rtentry4.o ABSOLUTE
    ../clib/angel/rt.s                       0x00000000   Number         0  rt_raise.o ABSOLUTE
    ../clib/angel/scatter.s                  0x00000000   Number         0  __scatter.o ABSOLUTE
    ../clib/angel/startup.s                  0x00000000   Number         0  __main.o ABSOLUTE
    ../clib/angel/sys.s                      0x00000000   Number         0  use_no_semi.o ABSOLUTE
    ../clib/angel/sys.s                      0x00000000   Number         0  indicate_semi.o ABSOLUTE
    ../clib/angel/sys.s                      0x00000000   Number         0  libspace.o ABSOLUTE
    ../clib/angel/sys.s                      0x00000000   Number         0  sys_stackheap_outer.o ABSOLUTE
    ../clib/angel/sysapp.c                   0x00000000   Number         0  sys_wrch.o ABSOLUTE
    ../clib/angel/sysapp.c                   0x00000000   Number         0  sys_command.o ABSOLUTE
    ../clib/angel/sysapp.c                   0x00000000   Number         0  sys_exit.o ABSOLUTE
    ../clib/armsys.c                         0x00000000   Number         0  no_argv.o ABSOLUTE
    ../clib/armsys.c                         0x00000000   Number         0  _get_argv_nomalloc.o ABSOLUTE
    ../clib/armsys.c                         0x00000000   Number         0  argv_veneer.o ABSOLUTE
    ../clib/armsys.c                         0x00000000   Number         0  argv_veneer.o ABSOLUTE
    ../clib/heapalloc.c                      0x00000000   Number         0  hrguard.o ABSOLUTE
    ../clib/heapaux.c                        0x00000000   Number         0  heapauxi.o ABSOLUTE
    ../clib/libinit.s                        0x00000000   Number         0  libinit.o ABSOLUTE
    ../clib/libinit.s                        0x00000000   Number         0  libshutdown2.o ABSOLUTE
    ../clib/libinit.s                        0x00000000   Number         0  libshutdown.o ABSOLUTE
    ../clib/libinit.s                        0x00000000   Number         0  libinit2.o ABSOLUTE
    ../clib/memcpset.s                       0x00000000   Number         0  rt_memclr_w.o ABSOLUTE
    ../clib/signal.c                         0x00000000   Number         0  defsig_rtmem_outer.o ABSOLUTE
    ../clib/signal.c                         0x00000000   Number         0  defsig_rtmem_formal.o ABSOLUTE
    ../clib/signal.c                         0x00000000   Number         0  defsig_exit.o ABSOLUTE
    ../clib/signal.c                         0x00000000   Number         0  defsig_other.o ABSOLUTE
    ../clib/signal.c                         0x00000000   Number         0  defsig_segv_inner.o ABSOLUTE
    ../clib/signal.c                         0x00000000   Number         0  defsig_cppl_inner.o ABSOLUTE
    ../clib/signal.c                         0x00000000   Number         0  defsig_pvfn_inner.o ABSOLUTE
    ../clib/signal.c                         0x00000000   Number         0  defsig_stak_inner.o ABSOLUTE
    ../clib/signal.c                         0x00000000   Number         0  defsig_rtred_inner.o ABSOLUTE
    ../clib/signal.c                         0x00000000   Number         0  defsig_fpe_inner.o ABSOLUTE
    ../clib/signal.c                         0x00000000   Number         0  defsig_abrt_inner.o ABSOLUTE
    ../clib/signal.c                         0x00000000   Number         0  __raise.o ABSOLUTE
    ../clib/signal.c                         0x00000000   Number         0  defsig_rtmem_inner.o ABSOLUTE
    ../clib/signal.c                         0x00000000   Number         0  defsig_general.o ABSOLUTE
    ../clib/signal.s                         0x00000000   Number         0  defsig.o ABSOLUTE
    ../clib/stdlib.c                         0x00000000   Number         0  exit.o ABSOLUTE
    ../fplib/fpinit.s                        0x00000000   Number         0  fpinit.o ABSOLUTE
    ..\Source\app\main.c                     0x00000000   Number         0  main.o ABSOLUTE
    ..\Source\app\variable.c                 0x00000000   Number         0  variable.o ABSOLUTE
    ..\Source\driver\ds18b20.c               0x00000000   Number         0  ds18b20.o ABSOLUTE
    ..\Source\driver\flash.c                 0x00000000   Number         0  flash.o ABSOLUTE
    ..\Source\hardware\adc.c                 0x00000000   Number         0  adc.o ABSOLUTE
    ..\Source\hardware\can.c                 0x00000000   Number         0  can.o ABSOLUTE
    ..\Source\hardware\i2c.c                 0x00000000   Number         0  i2c.o ABSOLUTE
    ..\Source\hardware\intermit.c            0x00000000   Number         0  intermit.o ABSOLUTE
    ..\Source\hardware\mydelay.c             0x00000000   Number         0  mydelay.o ABSOLUTE
    ..\Source\hardware\nvic.c                0x00000000   Number         0  nvic.o ABSOLUTE
    ..\Source\hardware\spi.c                 0x00000000   Number         0  spi.o ABSOLUTE
    ..\Source\hardware\tim.c                 0x00000000   Number         0  tim.o ABSOLUTE
    ..\Source\hardware\usart.c               0x00000000   Number         0  usart.o ABSOLUTE
    ..\Source\hardware\wdg.c                 0x00000000   Number         0  wdg.o ABSOLUTE
    ..\Source\stm32lib\conf\system_stm32f10x.c 0x00000000   Number         0  system_stm32f10x.o ABSOLUTE
    ..\Source\stm32lib\src\misc.c            0x00000000   Number         0  misc.o ABSOLUTE
    ..\Source\stm32lib\src\stm32f10x_adc.c   0x00000000   Number         0  stm32f10x_adc.o ABSOLUTE
    ..\Source\stm32lib\src\stm32f10x_bkp.c   0x00000000   Number         0  stm32f10x_bkp.o ABSOLUTE
    ..\Source\stm32lib\src\stm32f10x_can.c   0x00000000   Number         0  stm32f10x_can.o ABSOLUTE
    ..\Source\stm32lib\src\stm32f10x_cec.c   0x00000000   Number         0  stm32f10x_cec.o ABSOLUTE
    ..\Source\stm32lib\src\stm32f10x_crc.c   0x00000000   Number         0  stm32f10x_crc.o ABSOLUTE
    ..\Source\stm32lib\src\stm32f10x_dac.c   0x00000000   Number         0  stm32f10x_dac.o ABSOLUTE
    ..\Source\stm32lib\src\stm32f10x_dbgmcu.c 0x00000000   Number         0  stm32f10x_dbgmcu.o ABSOLUTE
    ..\Source\stm32lib\src\stm32f10x_dma.c   0x00000000   Number         0  stm32f10x_dma.o ABSOLUTE
    ..\Source\stm32lib\src\stm32f10x_exti.c  0x00000000   Number         0  stm32f10x_exti.o ABSOLUTE
    ..\Source\stm32lib\src\stm32f10x_flash.c 0x00000000   Number         0  stm32f10x_flash.o ABSOLUTE
    ..\Source\stm32lib\src\stm32f10x_fsmc.c  0x00000000   Number         0  stm32f10x_fsmc.o ABSOLUTE
    ..\Source\stm32lib\src\stm32f10x_gpio.c  0x00000000   Number         0  stm32f10x_gpio.o ABSOLUTE
    ..\Source\stm32lib\src\stm32f10x_i2c.c   0x00000000   Number         0  stm32f10x_i2c.o ABSOLUTE
    ..\Source\stm32lib\src\stm32f10x_iwdg.c  0x00000000   Number         0  stm32f10x_iwdg.o ABSOLUTE
    ..\Source\stm32lib\src\stm32f10x_pwr.c   0x00000000   Number         0  stm32f10x_pwr.o ABSOLUTE
    ..\Source\stm32lib\src\stm32f10x_rcc.c   0x00000000   Number         0  stm32f10x_rcc.o ABSOLUTE
    ..\Source\stm32lib\src\stm32f10x_rtc.c   0x00000000   Number         0  stm32f10x_rtc.o ABSOLUTE
    ..\Source\stm32lib\src\stm32f10x_sdio.c  0x00000000   Number         0  stm32f10x_sdio.o ABSOLUTE
    ..\Source\stm32lib\src\stm32f10x_spi.c   0x00000000   Number         0  stm32f10x_spi.o ABSOLUTE
    ..\Source\stm32lib\src\stm32f10x_tim.c   0x00000000   Number         0  stm32f10x_tim.o ABSOLUTE
    ..\Source\stm32lib\src\stm32f10x_usart.c 0x00000000   Number         0  stm32f10x_usart.o ABSOLUTE
    ..\Source\stm32lib\src\stm32f10x_wwdg.c  0x00000000   Number         0  stm32f10x_wwdg.o ABSOLUTE
    ..\Source\stm32lib\startup\core_cm3.c    0x00000000   Number         0  core_cm3.o ABSOLUTE
    ..\Source\stm32lib\startup\startup_stm32f10x_hd.s 0x00000000   Number         0  startup_stm32f10x_hd.o ABSOLUTE
    ..\\Source\\stm32lib\\startup\\core_cm3.c 0x00000000   Number         0  core_cm3.o ABSOLUTE
    dc.s                                     0x00000000   Number         0  dc.o ABSOLUTE
    RESET                                    0x08000000   Section      304  startup_stm32f10x_hd.o(RESET)
    !!!main                                  0x08000130   Section        8  __main.o(!!!main)
    !!!scatter                               0x08000138   Section       52  __scatter.o(!!!scatter)
    !!handler_copy                           0x0800016c   Section       26  __scatter_copy.o(!!handler_copy)
    !!handler_zi                             0x08000188   Section       28  __scatter_zi.o(!!handler_zi)
    .ARM.Collect$$libinit$$00000000          0x080001a4   Section        2  libinit.o(.ARM.Collect$$libinit$$00000000)
    .ARM.Collect$$libinit$$00000002          0x080001a6   Section        0  libinit2.o(.ARM.Collect$$libinit$$00000002)
    .ARM.Collect$$libinit$$00000008          0x080001a6   Section        0  libinit2.o(.ARM.Collect$$libinit$$00000008)
    .ARM.Collect$$libinit$$0000000A          0x080001a6   Section        0  libinit2.o(.ARM.Collect$$libinit$$0000000A)
    .ARM.Collect$$libinit$$0000000C          0x080001a6   Section        0  libinit2.o(.ARM.Collect$$libinit$$0000000C)
    .ARM.Collect$$libinit$$0000000F          0x080001a6   Section        0  libinit2.o(.ARM.Collect$$libinit$$0000000F)
    .ARM.Collect$$libinit$$00000011          0x080001a6   Section        0  libinit2.o(.ARM.Collect$$libinit$$00000011)
    .ARM.Collect$$libinit$$00000013          0x080001a6   Section        0  libinit2.o(.ARM.Collect$$libinit$$00000013)
    .ARM.Collect$$libinit$$00000015          0x080001a6   Section        0  libinit2.o(.ARM.Collect$$libinit$$00000015)
    .ARM.Collect$$libinit$$00000017          0x080001a6   Section        0  libinit2.o(.ARM.Collect$$libinit$$00000017)
    .ARM.Collect$$libinit$$00000019          0x080001a6   Section        0  libinit2.o(.ARM.Collect$$libinit$$00000019)
    .ARM.Collect$$libinit$$0000001B          0x080001a6   Section        0  libinit2.o(.ARM.Collect$$libinit$$0000001B)
    .ARM.Collect$$libinit$$0000001D          0x080001a6   Section        0  libinit2.o(.ARM.Collect$$libinit$$0000001D)
    .ARM.Collect$$libinit$$0000001F          0x080001a6   Section        0  libinit2.o(.ARM.Collect$$libinit$$0000001F)
    .ARM.Collect$$libinit$$00000021          0x080001a6   Section        0  libinit2.o(.ARM.Collect$$libinit$$00000021)
    .ARM.Collect$$libinit$$00000023          0x080001a6   Section        0  libinit2.o(.ARM.Collect$$libinit$$00000023)
    .ARM.Collect$$libinit$$0000002A          0x080001a6   Section        0  libinit2.o(.ARM.Collect$$libinit$$0000002A)
    .ARM.Collect$$libinit$$0000002C          0x080001a6   Section        0  libinit2.o(.ARM.Collect$$libinit$$0000002C)
    .ARM.Collect$$libinit$$0000002E          0x080001a6   Section        0  libinit2.o(.ARM.Collect$$libinit$$0000002E)
    .ARM.Collect$$libinit$$00000030          0x080001a6   Section        0  libinit2.o(.ARM.Collect$$libinit$$00000030)
    .ARM.Collect$$libinit$$00000031          0x080001a6   Section        2  libinit2.o(.ARM.Collect$$libinit$$00000031)
    .ARM.Collect$$libshutdown$$00000000      0x080001a8   Section        2  libshutdown.o(.ARM.Collect$$libshutdown$$00000000)
    .ARM.Collect$$libshutdown$$00000003      0x080001aa   Section        0  libshutdown2.o(.ARM.Collect$$libshutdown$$00000003)
    .ARM.Collect$$libshutdown$$00000006      0x080001aa   Section        0  libshutdown2.o(.ARM.Collect$$libshutdown$$00000006)
    .ARM.Collect$$libshutdown$$00000009      0x080001aa   Section        0  libshutdown2.o(.ARM.Collect$$libshutdown$$00000009)
    .ARM.Collect$$libshutdown$$0000000B      0x080001aa   Section        0  libshutdown2.o(.ARM.Collect$$libshutdown$$0000000B)
    .ARM.Collect$$libshutdown$$0000000E      0x080001aa   Section        0  libshutdown2.o(.ARM.Collect$$libshutdown$$0000000E)
    .ARM.Collect$$libshutdown$$0000000F      0x080001aa   Section        2  libshutdown2.o(.ARM.Collect$$libshutdown$$0000000F)
    .ARM.Collect$$rtentry$$00000000          0x080001ac   Section        0  rtentry.o(.ARM.Collect$$rtentry$$00000000)
    .ARM.Collect$$rtentry$$00000002          0x080001ac   Section        0  rtentry2.o(.ARM.Collect$$rtentry$$00000002)
    .ARM.Collect$$rtentry$$00000004          0x080001ac   Section        6  rtentry4.o(.ARM.Collect$$rtentry$$00000004)
    .ARM.Collect$$rtentry$$00000009          0x080001b2   Section        0  rtentry2.o(.ARM.Collect$$rtentry$$00000009)
    .ARM.Collect$$rtentry$$0000000A          0x080001b2   Section        4  rtentry2.o(.ARM.Collect$$rtentry$$0000000A)
    .ARM.Collect$$rtentry$$0000000C          0x080001b6   Section        0  rtentry2.o(.ARM.Collect$$rtentry$$0000000C)
    .ARM.Collect$$rtentry$$0000000D          0x080001b6   Section        8  rtentry2.o(.ARM.Collect$$rtentry$$0000000D)
    .ARM.Collect$$rtexit$$00000000           0x080001be   Section        2  rtexit.o(.ARM.Collect$$rtexit$$00000000)
    .ARM.Collect$$rtexit$$00000002           0x080001c0   Section        0  rtexit2.o(.ARM.Collect$$rtexit$$00000002)
    .ARM.Collect$$rtexit$$00000003           0x080001c0   Section        4  rtexit2.o(.ARM.Collect$$rtexit$$00000003)
    .ARM.Collect$$rtexit$$00000004           0x080001c4   Section        6  rtexit2.o(.ARM.Collect$$rtexit$$00000004)
    .text                                    0x080001cc   Section        0  adc.o(.text)
    QuickSort                                0x0800025b   Thumb Code   136  adc.o(.text)
    BubbleSort                               0x080002e3   Thumb Code    80  adc.o(.text)
    .text                                    0x080003a8   Section        0  i2c.o(.text)
    .text                                    0x0800065c   Section        0  intermit.o(.text)
    .text                                    0x08000700   Section        0  nvic.o(.text)
    .text                                    0x08000750   Section        0  tim.o(.text)
    .text                                    0x080009a4   Section        0  wdg.o(.text)
    .text                                    0x08000a38   Section        0  flash.o(.text)
    DataCompare                              0x08000b01   Thumb Code    36  flash.o(.text)
    .text                                    0x08000c7c   Section        0  main.o(.text)
    CopyStrToArr                             0x08000cc3   Thumb Code    24  main.o(.text)
    .text                                    0x08000ce0   Section       64  startup_stm32f10x_hd.o(.text)
    .text                                    0x08000d20   Section        0  misc.o(.text)
    .text                                    0x08000dfc   Section        0  stm32f10x_adc.o(.text)
    .text                                    0x0800124c   Section        0  stm32f10x_can.o(.text)
    CheckITStatus                            0x08001a4d   Thumb Code    16  stm32f10x_can.o(.text)
    .text                                    0x08001c34   Section        0  stm32f10x_flash.o(.text)
    .text                                    0x080021f0   Section        0  stm32f10x_gpio.o(.text)
    .text                                    0x08002548   Section        0  stm32f10x_i2c.o(.text)
    .text                                    0x0800294c   Section        0  stm32f10x_iwdg.o(.text)
    .text                                    0x0800298c   Section        0  stm32f10x_rcc.o(.text)
    .text                                    0x08002d30   Section        0  stm32f10x_tim.o(.text)
    TI4_Config                               0x080031d7   Thumb Code   130  stm32f10x_tim.o(.text)
    TI3_Config                               0x0800326b   Thumb Code   122  stm32f10x_tim.o(.text)
    TI2_Config                               0x080032ff   Thumb Code   130  stm32f10x_tim.o(.text)
    TI1_Config                               0x08003393   Thumb Code   108  stm32f10x_tim.o(.text)
    .text                                    0x08003b4c   Section        0  stm32f10x_wwdg.o(.text)
    .text                                    0x08003bd4   Section        0  system_stm32f10x.o(.text)
    SetSysClockTo72                          0x08003bd5   Thumb Code   212  system_stm32f10x.o(.text)
    SetSysClock                              0x08003ca9   Thumb Code     8  system_stm32f10x.o(.text)
    .text                                    0x08003db0   Section       78  rt_memclr_w.o(.text)
    .text                                    0x08003dfe   Section        0  heapauxi.o(.text)
    .text                                    0x08003e04   Section       74  sys_stackheap_outer.o(.text)
    .text                                    0x08003e4e   Section        0  exit.o(.text)
    .text                                    0x08003e5c   Section        8  libspace.o(.text)
    .text                                    0x08003e64   Section        0  sys_exit.o(.text)
    .text                                    0x08003e70   Section        2  use_no_semi.o(.text)
    .text                                    0x08003e72   Section        0  indicate_semi.o(.text)
    .data                                    0x20000000   Section        2  flash.o(.data)
    Ret                                      0x20000000   Data           1  flash.o(.data)
    Ret                                      0x20000001   Data           1  flash.o(.data)
    .data                                    0x20000004   Section       10  variable.o(.data)
    .data                                    0x2000000e   Section       20  stm32f10x_rcc.o(.data)
    APBAHBPrescTable                         0x2000000e   Data          16  stm32f10x_rcc.o(.data)
    ADCPrescTable                            0x2000001e   Data           4  stm32f10x_rcc.o(.data)
    .data                                    0x20000024   Section       20  system_stm32f10x.o(.data)
    .bss                                     0x20000038   Section      512  flash.o(.bss)
    u_FlashData                              0x20000038   Data         512  flash.o(.bss)
    .bss                                     0x20000238   Section     3345  variable.o(.bss)
    .bss                                     0x20000f4c   Section       96  libspace.o(.bss)
    HEAP                                     0x20000fb0   Section      512  startup_stm32f10x_hd.o(HEAP)
    Heap_Mem                                 0x20000fb0   Data         512  startup_stm32f10x_hd.o(HEAP)
    STACK                                    0x200011b0   Section     1024  startup_stm32f10x_hd.o(STACK)
    Stack_Mem                                0x200011b0   Data        1024  startup_stm32f10x_hd.o(STACK)
    __initial_sp                             0x200015b0   Data           0  startup_stm32f10x_hd.o(STACK)

    Global Symbols

    Symbol Name                              Value     Ov Type        Size  Object(Section)

    BuildAttributes$$THM_ISAv4$P$D$K$B$S$PE$A:L22UL41UL21$X:L11$S22US41US21$IEEE1$IW$USESV6$~STKCKD$USESV7$~SHL$OSPACE$ROPI$EBA8$UX$STANDARDLIB$REQ8$PRES8$EABIv2 0x00000000   Number         0  anon$$obj.o ABSOLUTE
    __ARM_use_no_argv                        0x00000000   Number         0  main.o ABSOLUTE
    __ARM_exceptions_init                     - Undefined Weak Reference
    __alloca_initialize                       - Undefined Weak Reference
    __cpp_initialize__aeabi_                  - Undefined Weak Reference
    __cxa_finalize                            - Undefined Weak Reference
    __rt_locale                               - Undefined Weak Reference
    __sigvec_lookup                           - Undefined Weak Reference
    _atexit_init                              - Undefined Weak Reference
    _call_atexit_fns                          - Undefined Weak Reference
    _clock_init                               - Undefined Weak Reference
    _fp_trap_init                             - Undefined Weak Reference
    _fp_trap_shutdown                         - Undefined Weak Reference
    _get_lc_collate                           - Undefined Weak Reference
    _get_lc_ctype                             - Undefined Weak Reference
    _get_lc_monetary                          - Undefined Weak Reference
    _get_lc_numeric                           - Undefined Weak Reference
    _get_lc_time                              - Undefined Weak Reference
    _getenv_init                              - Undefined Weak Reference
    _handle_redirection                       - Undefined Weak Reference
    _init_alloc                               - Undefined Weak Reference
    _init_user_alloc                          - Undefined Weak Reference
    _initio                                   - Undefined Weak Reference
    _rand_init                                - Undefined Weak Reference
    _signal_finish                            - Undefined Weak Reference
    _signal_init                              - Undefined Weak Reference
    _terminate_alloc                          - Undefined Weak Reference
    _terminate_user_alloc                     - Undefined Weak Reference
    _terminateio                              - Undefined Weak Reference
    __Vectors_Size                           0x00000130   Number         0  startup_stm32f10x_hd.o ABSOLUTE
    __Vectors                                0x08000000   Data           4  startup_stm32f10x_hd.o(RESET)
    __Vectors_End                            0x08000130   Data           0  startup_stm32f10x_hd.o(RESET)
    __main                                   0x08000131   Thumb Code     8  __main.o(!!!main)
    __scatterload                            0x08000139   Thumb Code     0  __scatter.o(!!!scatter)
    __scatterload_rt2                        0x08000139   Thumb Code    44  __scatter.o(!!!scatter)
    __scatterload_rt2_thumb_only             0x08000139   Thumb Code     0  __scatter.o(!!!scatter)
    __scatterload_null                       0x08000147   Thumb Code     0  __scatter.o(!!!scatter)
    __scatterload_copy                       0x0800016d   Thumb Code    26  __scatter_copy.o(!!handler_copy)
    __scatterload_zeroinit                   0x08000189   Thumb Code    28  __scatter_zi.o(!!handler_zi)
    __rt_lib_init                            0x080001a5   Thumb Code     0  libinit.o(.ARM.Collect$$libinit$$00000000)
    __rt_lib_init_alloca_1                   0x080001a7   Thumb Code     0  libinit2.o(.ARM.Collect$$libinit$$0000002C)
    __rt_lib_init_argv_1                     0x080001a7   Thumb Code     0  libinit2.o(.ARM.Collect$$libinit$$0000002A)
    __rt_lib_init_atexit_1                   0x080001a7   Thumb Code     0  libinit2.o(.ARM.Collect$$libinit$$00000019)
    __rt_lib_init_clock_1                    0x080001a7   Thumb Code     0  libinit2.o(.ARM.Collect$$libinit$$0000001F)
    __rt_lib_init_cpp_1                      0x080001a7   Thumb Code     0  libinit2.o(.ARM.Collect$$libinit$$00000030)
    __rt_lib_init_exceptions_1               0x080001a7   Thumb Code     0  libinit2.o(.ARM.Collect$$libinit$$0000002E)
    __rt_lib_init_fp_1                       0x080001a7   Thumb Code     0  libinit2.o(.ARM.Collect$$libinit$$00000002)
    __rt_lib_init_fp_trap_1                  0x080001a7   Thumb Code     0  libinit2.o(.ARM.Collect$$libinit$$0000001D)
    __rt_lib_init_getenv_1                   0x080001a7   Thumb Code     0  libinit2.o(.ARM.Collect$$libinit$$00000021)
    __rt_lib_init_heap_1                     0x080001a7   Thumb Code     0  libinit2.o(.ARM.Collect$$libinit$$00000008)
    __rt_lib_init_lc_collate_1               0x080001a7   Thumb Code     0  libinit2.o(.ARM.Collect$$libinit$$0000000F)
    __rt_lib_init_lc_ctype_1                 0x080001a7   Thumb Code     0  libinit2.o(.ARM.Collect$$libinit$$00000011)
    __rt_lib_init_lc_monetary_1              0x080001a7   Thumb Code     0  libinit2.o(.ARM.Collect$$libinit$$00000013)
    __rt_lib_init_lc_numeric_1               0x080001a7   Thumb Code     0  libinit2.o(.ARM.Collect$$libinit$$00000015)
    __rt_lib_init_lc_time_1                  0x080001a7   Thumb Code     0  libinit2.o(.ARM.Collect$$libinit$$00000017)
    __rt_lib_init_rand_1                     0x080001a7   Thumb Code     0  libinit2.o(.ARM.Collect$$libinit$$0000000C)
    __rt_lib_init_return                     0x080001a7   Thumb Code     0  libinit2.o(.ARM.Collect$$libinit$$00000031)
    __rt_lib_init_signal_1                   0x080001a7   Thumb Code     0  libinit2.o(.ARM.Collect$$libinit$$0000001B)
    __rt_lib_init_stdio_1                    0x080001a7   Thumb Code     0  libinit2.o(.ARM.Collect$$libinit$$00000023)
    __rt_lib_init_user_alloc_1               0x080001a7   Thumb Code     0  libinit2.o(.ARM.Collect$$libinit$$0000000A)
    __rt_lib_shutdown                        0x080001a9   Thumb Code     0  libshutdown.o(.ARM.Collect$$libshutdown$$00000000)
    __rt_lib_shutdown_fp_trap_1              0x080001ab   Thumb Code     0  libshutdown2.o(.ARM.Collect$$libshutdown$$00000006)
    __rt_lib_shutdown_heap_1                 0x080001ab   Thumb Code     0  libshutdown2.o(.ARM.Collect$$libshutdown$$0000000E)
    __rt_lib_shutdown_return                 0x080001ab   Thumb Code     0  libshutdown2.o(.ARM.Collect$$libshutdown$$0000000F)
    __rt_lib_shutdown_signal_1               0x080001ab   Thumb Code     0  libshutdown2.o(.ARM.Collect$$libshutdown$$00000009)
    __rt_lib_shutdown_stdio_1                0x080001ab   Thumb Code     0  libshutdown2.o(.ARM.Collect$$libshutdown$$00000003)
    __rt_lib_shutdown_user_alloc_1           0x080001ab   Thumb Code     0  libshutdown2.o(.ARM.Collect$$libshutdown$$0000000B)
    __rt_entry                               0x080001ad   Thumb Code     0  rtentry.o(.ARM.Collect$$rtentry$$00000000)
    __rt_entry_presh_1                       0x080001ad   Thumb Code     0  rtentry2.o(.ARM.Collect$$rtentry$$00000002)
    __rt_entry_sh                            0x080001ad   Thumb Code     0  rtentry4.o(.ARM.Collect$$rtentry$$00000004)
    __rt_entry_li                            0x080001b3   Thumb Code     0  rtentry2.o(.ARM.Collect$$rtentry$$0000000A)
    __rt_entry_postsh_1                      0x080001b3   Thumb Code     0  rtentry2.o(.ARM.Collect$$rtentry$$00000009)
    __rt_entry_main                          0x080001b7   Thumb Code     0  rtentry2.o(.ARM.Collect$$rtentry$$0000000D)
    __rt_entry_postli_1                      0x080001b7   Thumb Code     0  rtentry2.o(.ARM.Collect$$rtentry$$0000000C)
    __rt_exit                                0x080001bf   Thumb Code     0  rtexit.o(.ARM.Collect$$rtexit$$00000000)
    __rt_exit_ls                             0x080001c1   Thumb Code     0  rtexit2.o(.ARM.Collect$$rtexit$$00000003)
    __rt_exit_prels_1                        0x080001c1   Thumb Code     0  rtexit2.o(.ARM.Collect$$rtexit$$00000002)
    __rt_exit_exit                           0x080001c5   Thumb Code     0  rtexit2.o(.ARM.Collect$$rtexit$$00000004)
    Init_ADC                                 0x080001cd   Thumb Code   142  adc.o(.text)
    GetADC                                   0x08000333   Thumb Code   110  adc.o(.text)
    Init_I2C                                 0x080003a9   Thumb Code   212  i2c.o(.text)
    I2C_Standby_24C                          0x0800047d   Thumb Code    64  i2c.o(.text)
    I2CReadBytes                             0x080004bd   Thumb Code   236  i2c.o(.text)
    I2CWriteBytes                            0x080005a9   Thumb Code   154  i2c.o(.text)
    USB_LP_CAN1_RX0_IRQHandler               0x0800065d   Thumb Code    60  intermit.o(.text)
    TIM2_IRQHandler                          0x08000699   Thumb Code    32  intermit.o(.text)
    TIM3_IRQHandler                          0x080006b9   Thumb Code    28  intermit.o(.text)
    NMI_Handler                              0x080006d5   Thumb Code     2  intermit.o(.text)
    HardFault_Handler                        0x080006d7   Thumb Code     4  intermit.o(.text)
    MemManage_Handler                        0x080006db   Thumb Code     4  intermit.o(.text)
    BusFault_Handler                         0x080006df   Thumb Code     4  intermit.o(.text)
    UsageFault_Handler                       0x080006e3   Thumb Code     4  intermit.o(.text)
    SVC_Handler                              0x080006e7   Thumb Code     2  intermit.o(.text)
    DebugMon_Handler                         0x080006e9   Thumb Code     2  intermit.o(.text)
    PendSV_Handler                           0x080006eb   Thumb Code     2  intermit.o(.text)
    SysTick_Handler                          0x080006ed   Thumb Code     2  intermit.o(.text)
    Init_NVIC                                0x08000701   Thumb Code    80  nvic.o(.text)
    Init_Timer                               0x08000751   Thumb Code   386  tim.o(.text)
    Init_PWM                                 0x080008d3   Thumb Code   124  tim.o(.text)
    PWM_Out                                  0x0800094f   Thumb Code    68  tim.o(.text)
    IWDG_Init                                0x080009a5   Thumb Code    36  wdg.o(.text)
    IWDG_Feed                                0x080009c9   Thumb Code     8  wdg.o(.text)
    WWDG_NVIC_Init                           0x080009d1   Thumb Code    28  wdg.o(.text)
    WWDG_Init                                0x080009ed   Thumb Code    48  wdg.o(.text)
    WWDG_Set_Counter                         0x08000a1d   Thumb Code    12  wdg.o(.text)
    WWDG_IRQHandler                          0x08000a29   Thumb Code    14  wdg.o(.text)
    Flash_ReadBytes                          0x08000a39   Thumb Code    26  flash.o(.text)
    Flash_WriteBytes                         0x08000a53   Thumb Code   174  flash.o(.text)
    FM_WriteBytes                            0x08000b25   Thumb Code   210  flash.o(.text)
    FM_ReadBytes                             0x08000bf7   Thumb Code   116  flash.o(.text)
    main                                     0x08000c7d   Thumb Code    42  main.o(.text)
    ReadModuleParam                          0x08000ca7   Thumb Code    24  main.o(.text)
    SetModDefPara                            0x08000cbf   Thumb Code     2  main.o(.text)
    Init_Drive                               0x08000cc1   Thumb Code     2  main.o(.text)
    Reset_Handler                            0x08000ce1   Thumb Code     8  startup_stm32f10x_hd.o(.text)
    ADC1_2_IRQHandler                        0x08000cfb   Thumb Code     0  startup_stm32f10x_hd.o(.text)
    ADC3_IRQHandler                          0x08000cfb   Thumb Code     0  startup_stm32f10x_hd.o(.text)
    CAN1_RX1_IRQHandler                      0x08000cfb   Thumb Code     0  startup_stm32f10x_hd.o(.text)
    CAN1_SCE_IRQHandler                      0x08000cfb   Thumb Code     0  startup_stm32f10x_hd.o(.text)
    DMA1_Channel1_IRQHandler                 0x08000cfb   Thumb Code     0  startup_stm32f10x_hd.o(.text)
    DMA1_Channel2_IRQHandler                 0x08000cfb   Thumb Code     0  startup_stm32f10x_hd.o(.text)
    DMA1_Channel3_IRQHandler                 0x08000cfb   Thumb Code     0  startup_stm32f10x_hd.o(.text)
    DMA1_Channel4_IRQHandler                 0x08000cfb   Thumb Code     0  startup_stm32f10x_hd.o(.text)
    DMA1_Channel5_IRQHandler                 0x08000cfb   Thumb Code     0  startup_stm32f10x_hd.o(.text)
    DMA1_Channel6_IRQHandler                 0x08000cfb   Thumb Code     0  startup_stm32f10x_hd.o(.text)
    DMA1_Channel7_IRQHandler                 0x08000cfb   Thumb Code     0  startup_stm32f10x_hd.o(.text)
    DMA2_Channel1_IRQHandler                 0x08000cfb   Thumb Code     0  startup_stm32f10x_hd.o(.text)
    DMA2_Channel2_IRQHandler                 0x08000cfb   Thumb Code     0  startup_stm32f10x_hd.o(.text)
    DMA2_Channel3_IRQHandler                 0x08000cfb   Thumb Code     0  startup_stm32f10x_hd.o(.text)
    DMA2_Channel4_5_IRQHandler               0x08000cfb   Thumb Code     0  startup_stm32f10x_hd.o(.text)
    EXTI0_IRQHandler                         0x08000cfb   Thumb Code     0  startup_stm32f10x_hd.o(.text)
    EXTI15_10_IRQHandler                     0x08000cfb   Thumb Code     0  startup_stm32f10x_hd.o(.text)
    EXTI1_IRQHandler                         0x08000cfb   Thumb Code     0  startup_stm32f10x_hd.o(.text)
    EXTI2_IRQHandler                         0x08000cfb   Thumb Code     0  startup_stm32f10x_hd.o(.text)
    EXTI3_IRQHandler                         0x08000cfb   Thumb Code     0  startup_stm32f10x_hd.o(.text)
    EXTI4_IRQHandler                         0x08000cfb   Thumb Code     0  startup_stm32f10x_hd.o(.text)
    EXTI9_5_IRQHandler                       0x08000cfb   Thumb Code     0  startup_stm32f10x_hd.o(.text)
    FLASH_IRQHandler                         0x08000cfb   Thumb Code     0  startup_stm32f10x_hd.o(.text)
    FSMC_IRQHandler                          0x08000cfb   Thumb Code     0  startup_stm32f10x_hd.o(.text)
    I2C1_ER_IRQHandler                       0x08000cfb   Thumb Code     0  startup_stm32f10x_hd.o(.text)
    I2C1_EV_IRQHandler                       0x08000cfb   Thumb Code     0  startup_stm32f10x_hd.o(.text)
    I2C2_ER_IRQHandler                       0x08000cfb   Thumb Code     0  startup_stm32f10x_hd.o(.text)
    I2C2_EV_IRQHandler                       0x08000cfb   Thumb Code     0  startup_stm32f10x_hd.o(.text)
    PVD_IRQHandler                           0x08000cfb   Thumb Code     0  startup_stm32f10x_hd.o(.text)
    RCC_IRQHandler                           0x08000cfb   Thumb Code     0  startup_stm32f10x_hd.o(.text)
    RTCAlarm_IRQHandler                      0x08000cfb   Thumb Code     0  startup_stm32f10x_hd.o(.text)
    RTC_IRQHandler                           0x08000cfb   Thumb Code     0  startup_stm32f10x_hd.o(.text)
    SDIO_IRQHandler                          0x08000cfb   Thumb Code     0  startup_stm32f10x_hd.o(.text)
    SPI1_IRQHandler                          0x08000cfb   Thumb Code     0  startup_stm32f10x_hd.o(.text)
    SPI2_IRQHandler                          0x08000cfb   Thumb Code     0  startup_stm32f10x_hd.o(.text)
    SPI3_IRQHandler                          0x08000cfb   Thumb Code     0  startup_stm32f10x_hd.o(.text)
    TAMPER_IRQHandler                        0x08000cfb   Thumb Code     0  startup_stm32f10x_hd.o(.text)
    TIM1_BRK_IRQHandler                      0x08000cfb   Thumb Code     0  startup_stm32f10x_hd.o(.text)
    TIM1_CC_IRQHandler                       0x08000cfb   Thumb Code     0  startup_stm32f10x_hd.o(.text)
    TIM1_TRG_COM_IRQHandler                  0x08000cfb   Thumb Code     0  startup_stm32f10x_hd.o(.text)
    TIM1_UP_IRQHandler                       0x08000cfb   Thumb Code     0  startup_stm32f10x_hd.o(.text)
    TIM4_IRQHandler                          0x08000cfb   Thumb Code     0  startup_stm32f10x_hd.o(.text)
    TIM5_IRQHandler                          0x08000cfb   Thumb Code     0  startup_stm32f10x_hd.o(.text)
    TIM6_IRQHandler                          0x08000cfb   Thumb Code     0  startup_stm32f10x_hd.o(.text)
    TIM7_IRQHandler                          0x08000cfb   Thumb Code     0  startup_stm32f10x_hd.o(.text)
    TIM8_BRK_IRQHandler                      0x08000cfb   Thumb Code     0  startup_stm32f10x_hd.o(.text)
    TIM8_CC_IRQHandler                       0x08000cfb   Thumb Code     0  startup_stm32f10x_hd.o(.text)
    TIM8_TRG_COM_IRQHandler                  0x08000cfb   Thumb Code     0  startup_stm32f10x_hd.o(.text)
    TIM8_UP_IRQHandler                       0x08000cfb   Thumb Code     0  startup_stm32f10x_hd.o(.text)
    UART4_IRQHandler                         0x08000cfb   Thumb Code     0  startup_stm32f10x_hd.o(.text)
    UART5_IRQHandler                         0x08000cfb   Thumb Code     0  startup_stm32f10x_hd.o(.text)
    USART1_IRQHandler                        0x08000cfb   Thumb Code     0  startup_stm32f10x_hd.o(.text)
    USART2_IRQHandler                        0x08000cfb   Thumb Code     0  startup_stm32f10x_hd.o(.text)
    USART3_IRQHandler                        0x08000cfb   Thumb Code     0  startup_stm32f10x_hd.o(.text)
    USBWakeUp_IRQHandler                     0x08000cfb   Thumb Code     0  startup_stm32f10x_hd.o(.text)
    USB_HP_CAN1_TX_IRQHandler                0x08000cfb   Thumb Code     0  startup_stm32f10x_hd.o(.text)
    __user_initial_stackheap                 0x08000cfd   Thumb Code     0  startup_stm32f10x_hd.o(.text)
    NVIC_PriorityGroupConfig                 0x08000d21   Thumb Code    10  misc.o(.text)
    NVIC_Init                                0x08000d2b   Thumb Code   102  misc.o(.text)
    NVIC_SetVectorTable                      0x08000d91   Thumb Code    14  misc.o(.text)
    NVIC_SystemLPConfig                      0x08000d9f   Thumb Code    34  misc.o(.text)
    SysTick_CLKSourceConfig                  0x08000dc1   Thumb Code    40  misc.o(.text)
    ADC_DeInit                               0x08000dfd   Thumb Code    78  stm32f10x_adc.o(.text)
    ADC_Init                                 0x08000e4b   Thumb Code    70  stm32f10x_adc.o(.text)
    ADC_StructInit                           0x08000e91   Thumb Code    18  stm32f10x_adc.o(.text)
    ADC_Cmd                                  0x08000ea3   Thumb Code    22  stm32f10x_adc.o(.text)
    ADC_DMACmd                               0x08000eb9   Thumb Code    22  stm32f10x_adc.o(.text)
    ADC_ITConfig                             0x08000ecf   Thumb Code    24  stm32f10x_adc.o(.text)
    ADC_ResetCalibration                     0x08000ee7   Thumb Code    10  stm32f10x_adc.o(.text)
    ADC_GetResetCalibrationStatus            0x08000ef1   Thumb Code    20  stm32f10x_adc.o(.text)
    ADC_StartCalibration                     0x08000f05   Thumb Code    10  stm32f10x_adc.o(.text)
    ADC_GetCalibrationStatus                 0x08000f0f   Thumb Code    20  stm32f10x_adc.o(.text)
    ADC_SoftwareStartConvCmd                 0x08000f23   Thumb Code    22  stm32f10x_adc.o(.text)
    ADC_GetSoftwareStartConvStatus           0x08000f39   Thumb Code    20  stm32f10x_adc.o(.text)
    ADC_DiscModeChannelCountConfig           0x08000f4d   Thumb Code    24  stm32f10x_adc.o(.text)
    ADC_DiscModeCmd                          0x08000f65   Thumb Code    22  stm32f10x_adc.o(.text)
    ADC_RegularChannelConfig                 0x08000f7b   Thumb Code   184  stm32f10x_adc.o(.text)
    ADC_ExternalTrigConvCmd                  0x08001033   Thumb Code    22  stm32f10x_adc.o(.text)
    ADC_GetConversionValue                   0x08001049   Thumb Code     8  stm32f10x_adc.o(.text)
    ADC_GetDualModeConversionValue           0x08001051   Thumb Code     8  stm32f10x_adc.o(.text)
    ADC_AutoInjectedConvCmd                  0x08001059   Thumb Code    22  stm32f10x_adc.o(.text)
    ADC_InjectedDiscModeCmd                  0x0800106f   Thumb Code    22  stm32f10x_adc.o(.text)
    ADC_ExternalTrigInjectedConvConfig       0x08001085   Thumb Code    16  stm32f10x_adc.o(.text)
    ADC_ExternalTrigInjectedConvCmd          0x08001095   Thumb Code    22  stm32f10x_adc.o(.text)
    ADC_SoftwareStartInjectedConvCmd         0x080010ab   Thumb Code    22  stm32f10x_adc.o(.text)
    ADC_GetSoftwareStartInjectedConvCmdStatus 0x080010c1   Thumb Code    20  stm32f10x_adc.o(.text)
    ADC_InjectedChannelConfig                0x080010d5   Thumb Code   130  stm32f10x_adc.o(.text)
    ADC_InjectedSequencerLengthConfig        0x08001157   Thumb Code    24  stm32f10x_adc.o(.text)
    ADC_SetInjectedOffset                    0x0800116f   Thumb Code    20  stm32f10x_adc.o(.text)
    ADC_GetInjectedConversionValue           0x08001183   Thumb Code    28  stm32f10x_adc.o(.text)
    ADC_AnalogWatchdogCmd                    0x0800119f   Thumb Code    16  stm32f10x_adc.o(.text)
    ADC_AnalogWatchdogThresholdsConfig       0x080011af   Thumb Code     6  stm32f10x_adc.o(.text)
    ADC_AnalogWatchdogSingleChannelConfig    0x080011b5   Thumb Code    16  stm32f10x_adc.o(.text)
    ADC_TempSensorVrefintCmd                 0x080011c5   Thumb Code    64  stm32f10x_adc.o(.text)
    ADC_GetFlagStatus                        0x08001205   Thumb Code    18  stm32f10x_adc.o(.text)
    ADC_ClearFlag                            0x08001217   Thumb Code     6  stm32f10x_adc.o(.text)
    ADC_GetITStatus                          0x0800121d   Thumb Code    36  stm32f10x_adc.o(.text)
    ADC_ClearITPendingBit                    0x08001241   Thumb Code    10  stm32f10x_adc.o(.text)
    CAN_DeInit                               0x0800124d   Thumb Code    50  stm32f10x_can.o(.text)
    CAN_Init                                 0x0800127f   Thumb Code   276  stm32f10x_can.o(.text)
    CAN_FilterInit                           0x08001393   Thumb Code   258  stm32f10x_can.o(.text)
    CAN_StructInit                           0x08001495   Thumb Code    32  stm32f10x_can.o(.text)
    CAN_SlaveStartBank                       0x080014b5   Thumb Code    48  stm32f10x_can.o(.text)
    CAN_DBGFreeze                            0x080014e5   Thumb Code    22  stm32f10x_can.o(.text)
    CAN_TTComModeCmd                         0x080014fb   Thumb Code   118  stm32f10x_can.o(.text)
    CAN_Transmit                             0x08001571   Thumb Code   304  stm32f10x_can.o(.text)
    CAN_TransmitStatus                       0x080016a1   Thumb Code   136  stm32f10x_can.o(.text)
    CAN_CancelTransmit                       0x08001729   Thumb Code    48  stm32f10x_can.o(.text)
    CAN_Receive                              0x08001759   Thumb Code   240  stm32f10x_can.o(.text)
    CAN_FIFORelease                          0x08001849   Thumb Code    22  stm32f10x_can.o(.text)
    CAN_MessagePending                       0x0800185f   Thumb Code    30  stm32f10x_can.o(.text)
    CAN_OperatingModeRequest                 0x0800187d   Thumb Code   162  stm32f10x_can.o(.text)
    CAN_Sleep                                0x0800191f   Thumb Code    30  stm32f10x_can.o(.text)
    CAN_WakeUp                               0x0800193d   Thumb Code    48  stm32f10x_can.o(.text)
    CAN_GetLastErrorCode                     0x0800196d   Thumb Code    12  stm32f10x_can.o(.text)
    CAN_GetReceiveErrorCounter               0x08001979   Thumb Code    10  stm32f10x_can.o(.text)
    CAN_GetLSBTransmitErrorCounter           0x08001983   Thumb Code    12  stm32f10x_can.o(.text)
    CAN_ITConfig                             0x0800198f   Thumb Code    18  stm32f10x_can.o(.text)
    CAN_GetFlagStatus                        0x080019a1   Thumb Code   120  stm32f10x_can.o(.text)
    CAN_ClearFlag                            0x08001a19   Thumb Code    52  stm32f10x_can.o(.text)
    CAN_GetITStatus                          0x08001a5d   Thumb Code   306  stm32f10x_can.o(.text)
    CAN_ClearITPendingBit                    0x08001b8f   Thumb Code   162  stm32f10x_can.o(.text)
    FLASH_SetLatency                         0x08001c35   Thumb Code    18  stm32f10x_flash.o(.text)
    FLASH_HalfCycleAccessCmd                 0x08001c47   Thumb Code    22  stm32f10x_flash.o(.text)
    FLASH_PrefetchBufferCmd                  0x08001c5d   Thumb Code    22  stm32f10x_flash.o(.text)
    FLASH_Unlock                             0x08001c73   Thumb Code    12  stm32f10x_flash.o(.text)
    FLASH_UnlockBank1                        0x08001c7f   Thumb Code    12  stm32f10x_flash.o(.text)
    FLASH_Lock                               0x08001c8b   Thumb Code    14  stm32f10x_flash.o(.text)
    FLASH_LockBank1                          0x08001c99   Thumb Code    14  stm32f10x_flash.o(.text)
    FLASH_GetBank1Status                     0x08001ca7   Thumb Code    48  stm32f10x_flash.o(.text)
    FLASH_WaitForLastOperation               0x08001cd7   Thumb Code    38  stm32f10x_flash.o(.text)
    FLASH_ErasePage                          0x08001cfd   Thumb Code    72  stm32f10x_flash.o(.text)
    FLASH_EraseAllPages                      0x08001d45   Thumb Code    68  stm32f10x_flash.o(.text)
    FLASH_WaitForLastBank1Operation          0x08001d89   Thumb Code    38  stm32f10x_flash.o(.text)
    FLASH_EraseAllBank1Pages                 0x08001daf   Thumb Code    68  stm32f10x_flash.o(.text)
    FLASH_GetReadOutProtectionStatus         0x08001df3   Thumb Code    20  stm32f10x_flash.o(.text)
    FLASH_EraseOptionBytes                   0x08001e07   Thumb Code   150  stm32f10x_flash.o(.text)
    FLASH_ProgramWord                        0x08001e9d   Thumb Code   102  stm32f10x_flash.o(.text)
    FLASH_ProgramHalfWord                    0x08001f03   Thumb Code    60  stm32f10x_flash.o(.text)
    FLASH_ProgramOptionByteData              0x08001f3f   Thumb Code    72  stm32f10x_flash.o(.text)
    FLASH_EnableWriteProtection              0x08001f87   Thumb Code   200  stm32f10x_flash.o(.text)
    FLASH_ReadOutProtection                  0x0800204f   Thumb Code   156  stm32f10x_flash.o(.text)
    FLASH_UserOptionByteConfig               0x080020eb   Thumb Code    88  stm32f10x_flash.o(.text)
    FLASH_GetUserOptionByte                  0x08002143   Thumb Code     8  stm32f10x_flash.o(.text)
    FLASH_GetWriteProtectionOptionByte       0x0800214b   Thumb Code     6  stm32f10x_flash.o(.text)
    FLASH_GetPrefetchBufferStatus            0x08002151   Thumb Code    20  stm32f10x_flash.o(.text)
    FLASH_ITConfig                           0x08002165   Thumb Code    26  stm32f10x_flash.o(.text)
    FLASH_GetFlagStatus                      0x0800217f   Thumb Code    42  stm32f10x_flash.o(.text)
    FLASH_ClearFlag                          0x080021a9   Thumb Code     6  stm32f10x_flash.o(.text)
    FLASH_GetStatus                          0x080021af   Thumb Code    48  stm32f10x_flash.o(.text)
    GPIO_DeInit                              0x080021f1   Thumb Code   172  stm32f10x_gpio.o(.text)
    GPIO_AFIODeInit                          0x0800229d   Thumb Code    20  stm32f10x_gpio.o(.text)
    GPIO_Init                                0x080022b1   Thumb Code   274  stm32f10x_gpio.o(.text)
    GPIO_StructInit                          0x080023c3   Thumb Code    16  stm32f10x_gpio.o(.text)
    GPIO_ReadInputDataBit                    0x080023d3   Thumb Code    18  stm32f10x_gpio.o(.text)
    GPIO_ReadInputData                       0x080023e5   Thumb Code     8  stm32f10x_gpio.o(.text)
    GPIO_ReadOutputDataBit                   0x080023ed   Thumb Code    18  stm32f10x_gpio.o(.text)
    GPIO_ReadOutputData                      0x080023ff   Thumb Code     8  stm32f10x_gpio.o(.text)
    GPIO_SetBits                             0x08002407   Thumb Code     4  stm32f10x_gpio.o(.text)
    GPIO_ResetBits                           0x0800240b   Thumb Code     4  stm32f10x_gpio.o(.text)
    GPIO_WriteBit                            0x0800240f   Thumb Code    10  stm32f10x_gpio.o(.text)
    GPIO_Write                               0x08002419   Thumb Code     4  stm32f10x_gpio.o(.text)
    GPIO_PinLockConfig                       0x0800241d   Thumb Code    18  stm32f10x_gpio.o(.text)
    GPIO_EventOutputConfig                   0x0800242f   Thumb Code    26  stm32f10x_gpio.o(.text)
    GPIO_EventOutputCmd                      0x08002449   Thumb Code     6  stm32f10x_gpio.o(.text)
    GPIO_PinRemapConfig                      0x0800244f   Thumb Code   138  stm32f10x_gpio.o(.text)
    GPIO_EXTILineConfig                      0x080024d9   Thumb Code    66  stm32f10x_gpio.o(.text)
    GPIO_ETH_MediaInterfaceConfig            0x0800251b   Thumb Code     6  stm32f10x_gpio.o(.text)
    I2C_DeInit                               0x08002549   Thumb Code    50  stm32f10x_i2c.o(.text)
    I2C_Init                                 0x0800257b   Thumb Code   222  stm32f10x_i2c.o(.text)
    I2C_StructInit                           0x08002659   Thumb Code    30  stm32f10x_i2c.o(.text)
    I2C_Cmd                                  0x08002677   Thumb Code    24  stm32f10x_i2c.o(.text)
    I2C_DMACmd                               0x0800268f   Thumb Code    24  stm32f10x_i2c.o(.text)
    I2C_DMALastTransferCmd                   0x080026a7   Thumb Code    24  stm32f10x_i2c.o(.text)
    I2C_GenerateSTART                        0x080026bf   Thumb Code    24  stm32f10x_i2c.o(.text)
    I2C_GenerateSTOP                         0x080026d7   Thumb Code    24  stm32f10x_i2c.o(.text)
    I2C_AcknowledgeConfig                    0x080026ef   Thumb Code    24  stm32f10x_i2c.o(.text)
    I2C_OwnAddress2Config                    0x08002707   Thumb Code    22  stm32f10x_i2c.o(.text)
    I2C_DualAddressCmd                       0x0800271d   Thumb Code    24  stm32f10x_i2c.o(.text)
    I2C_GeneralCallCmd                       0x08002735   Thumb Code    24  stm32f10x_i2c.o(.text)
    I2C_ITConfig                             0x0800274d   Thumb Code    18  stm32f10x_i2c.o(.text)
    I2C_SendData                             0x0800275f   Thumb Code     4  stm32f10x_i2c.o(.text)
    I2C_ReceiveData                          0x08002763   Thumb Code     8  stm32f10x_i2c.o(.text)
    I2C_Send7bitAddress                      0x0800276b   Thumb Code    18  stm32f10x_i2c.o(.text)
    I2C_ReadRegister                         0x0800277d   Thumb Code    22  stm32f10x_i2c.o(.text)
    I2C_SoftwareResetCmd                     0x08002793   Thumb Code    22  stm32f10x_i2c.o(.text)
    I2C_NACKPositionConfig                   0x080027a9   Thumb Code    28  stm32f10x_i2c.o(.text)
    I2C_SMBusAlertConfig                     0x080027c5   Thumb Code    28  stm32f10x_i2c.o(.text)
    I2C_TransmitPEC                          0x080027e1   Thumb Code    24  stm32f10x_i2c.o(.text)
    I2C_PECPositionConfig                    0x080027f9   Thumb Code    28  stm32f10x_i2c.o(.text)
    I2C_CalculatePEC                         0x08002815   Thumb Code    24  stm32f10x_i2c.o(.text)
    I2C_GetPEC                               0x0800282d   Thumb Code     8  stm32f10x_i2c.o(.text)
    I2C_ARPCmd                               0x08002835   Thumb Code    24  stm32f10x_i2c.o(.text)
    I2C_StretchClockCmd                      0x0800284d   Thumb Code    24  stm32f10x_i2c.o(.text)
    I2C_FastModeDutyCycleConfig              0x08002865   Thumb Code    28  stm32f10x_i2c.o(.text)
    I2C_CheckEvent                           0x08002881   Thumb Code    42  stm32f10x_i2c.o(.text)
    I2C_GetLastEvent                         0x080028ab   Thumb Code    26  stm32f10x_i2c.o(.text)
    I2C_GetFlagStatus                        0x080028c5   Thumb Code    58  stm32f10x_i2c.o(.text)
    I2C_ClearFlag                            0x080028ff   Thumb Code    12  stm32f10x_i2c.o(.text)
    I2C_GetITStatus                          0x0800290b   Thumb Code    54  stm32f10x_i2c.o(.text)
    I2C_ClearITPendingBit                    0x08002941   Thumb Code    12  stm32f10x_i2c.o(.text)
    IWDG_WriteAccessCmd                      0x0800294d   Thumb Code     6  stm32f10x_iwdg.o(.text)
    IWDG_SetPrescaler                        0x08002953   Thumb Code     6  stm32f10x_iwdg.o(.text)
    IWDG_SetReload                           0x08002959   Thumb Code     6  stm32f10x_iwdg.o(.text)
    IWDG_ReloadCounter                       0x0800295f   Thumb Code    10  stm32f10x_iwdg.o(.text)
    IWDG_Enable                              0x08002969   Thumb Code    10  stm32f10x_iwdg.o(.text)
    IWDG_GetFlagStatus                       0x08002973   Thumb Code    20  stm32f10x_iwdg.o(.text)
    RCC_DeInit                               0x0800298d   Thumb Code    64  stm32f10x_rcc.o(.text)
    RCC_HSEConfig                            0x080029cd   Thumb Code    70  stm32f10x_rcc.o(.text)
    RCC_GetFlagStatus                        0x08002a13   Thumb Code    56  stm32f10x_rcc.o(.text)
    RCC_WaitForHSEStartUp                    0x08002a4b   Thumb Code    56  stm32f10x_rcc.o(.text)
    RCC_AdjustHSICalibrationValue            0x08002a83   Thumb Code    20  stm32f10x_rcc.o(.text)
    RCC_HSICmd                               0x08002a97   Thumb Code     6  stm32f10x_rcc.o(.text)
    RCC_PLLConfig                            0x08002a9d   Thumb Code    24  stm32f10x_rcc.o(.text)
    RCC_PLLCmd                               0x08002ab5   Thumb Code     6  stm32f10x_rcc.o(.text)
    RCC_SYSCLKConfig                         0x08002abb   Thumb Code    18  stm32f10x_rcc.o(.text)
    RCC_GetSYSCLKSource                      0x08002acd   Thumb Code    10  stm32f10x_rcc.o(.text)
    RCC_HCLKConfig                           0x08002ad7   Thumb Code    18  stm32f10x_rcc.o(.text)
    RCC_PCLK1Config                          0x08002ae9   Thumb Code    18  stm32f10x_rcc.o(.text)
    RCC_PCLK2Config                          0x08002afb   Thumb Code    20  stm32f10x_rcc.o(.text)
    RCC_ITConfig                             0x08002b0f   Thumb Code    26  stm32f10x_rcc.o(.text)
    RCC_USBCLKConfig                         0x08002b29   Thumb Code     6  stm32f10x_rcc.o(.text)
    RCC_ADCCLKConfig                         0x08002b2f   Thumb Code    18  stm32f10x_rcc.o(.text)
    RCC_LSEConfig                            0x08002b41   Thumb Code    44  stm32f10x_rcc.o(.text)
    RCC_LSICmd                               0x08002b6d   Thumb Code     6  stm32f10x_rcc.o(.text)
    RCC_RTCCLKConfig                         0x08002b73   Thumb Code    12  stm32f10x_rcc.o(.text)
    RCC_RTCCLKCmd                            0x08002b7f   Thumb Code     8  stm32f10x_rcc.o(.text)
    RCC_GetClocksFreq                        0x08002b87   Thumb Code   192  stm32f10x_rcc.o(.text)
    RCC_AHBPeriphClockCmd                    0x08002c47   Thumb Code    26  stm32f10x_rcc.o(.text)
    RCC_APB2PeriphClockCmd                   0x08002c61   Thumb Code    26  stm32f10x_rcc.o(.text)
    RCC_APB1PeriphClockCmd                   0x08002c7b   Thumb Code    26  stm32f10x_rcc.o(.text)
    RCC_APB2PeriphResetCmd                   0x08002c95   Thumb Code    26  stm32f10x_rcc.o(.text)
    RCC_APB1PeriphResetCmd                   0x08002caf   Thumb Code    26  stm32f10x_rcc.o(.text)
    RCC_BackupResetCmd                       0x08002cc9   Thumb Code     8  stm32f10x_rcc.o(.text)
    RCC_ClockSecuritySystemCmd               0x08002cd1   Thumb Code     6  stm32f10x_rcc.o(.text)
    RCC_MCOConfig                            0x08002cd7   Thumb Code     6  stm32f10x_rcc.o(.text)
    RCC_ClearFlag                            0x08002cdd   Thumb Code    14  stm32f10x_rcc.o(.text)
    RCC_GetITStatus                          0x08002ceb   Thumb Code    20  stm32f10x_rcc.o(.text)
    RCC_ClearITPendingBit                    0x08002cff   Thumb Code     6  stm32f10x_rcc.o(.text)
    TIM_DeInit                               0x08002d31   Thumb Code   424  stm32f10x_tim.o(.text)
    TIM_TimeBaseInit                         0x08002ed9   Thumb Code   122  stm32f10x_tim.o(.text)
    TIM_OC1Init                              0x08002f53   Thumb Code   132  stm32f10x_tim.o(.text)
    TIM_OC2Init                              0x08002fd7   Thumb Code   154  stm32f10x_tim.o(.text)
    TIM_OC3Init                              0x08003071   Thumb Code   150  stm32f10x_tim.o(.text)
    TIM_OC4Init                              0x08003107   Thumb Code   182  stm32f10x_tim.o(.text)
    TIM_SetIC4Prescaler                      0x080031bd   Thumb Code    26  stm32f10x_tim.o(.text)
    TIM_SetIC3Prescaler                      0x08003259   Thumb Code    18  stm32f10x_tim.o(.text)
    TIM_SetIC2Prescaler                      0x080032e5   Thumb Code    26  stm32f10x_tim.o(.text)
    TIM_SetIC1Prescaler                      0x08003381   Thumb Code    18  stm32f10x_tim.o(.text)
    TIM_ICInit                               0x080033ff   Thumb Code   150  stm32f10x_tim.o(.text)
    TIM_PWMIConfig                           0x08003495   Thumb Code   124  stm32f10x_tim.o(.text)
    TIM_BDTRConfig                           0x08003511   Thumb Code    32  stm32f10x_tim.o(.text)
    TIM_TimeBaseStructInit                   0x08003531   Thumb Code    18  stm32f10x_tim.o(.text)
    TIM_OCStructInit                         0x08003543   Thumb Code    20  stm32f10x_tim.o(.text)
    TIM_ICStructInit                         0x08003557   Thumb Code    18  stm32f10x_tim.o(.text)
    TIM_BDTRStructInit                       0x08003569   Thumb Code    40  stm32f10x_tim.o(.text)
    TIM_Cmd                                  0x08003591   Thumb Code    24  stm32f10x_tim.o(.text)
    TIM_CtrlPWMOutputs                       0x080035a9   Thumb Code    30  stm32f10x_tim.o(.text)
    TIM_ITConfig                             0x080035c7   Thumb Code    18  stm32f10x_tim.o(.text)
    TIM_GenerateEvent                        0x080035d9   Thumb Code     4  stm32f10x_tim.o(.text)
    TIM_DMAConfig                            0x080035dd   Thumb Code    10  stm32f10x_tim.o(.text)
    TIM_DMACmd                               0x080035e7   Thumb Code    18  stm32f10x_tim.o(.text)
    TIM_InternalClockConfig                  0x080035f9   Thumb Code    12  stm32f10x_tim.o(.text)
    TIM_SelectInputTrigger                   0x08003605   Thumb Code    18  stm32f10x_tim.o(.text)
    TIM_ITRxExternalClockConfig              0x08003617   Thumb Code    24  stm32f10x_tim.o(.text)
    TIM_TIxExternalClockConfig               0x0800362f   Thumb Code    62  stm32f10x_tim.o(.text)
    TIM_ETRConfig                            0x0800366d   Thumb Code    28  stm32f10x_tim.o(.text)
    TIM_ETRClockMode1Config                  0x08003689   Thumb Code    54  stm32f10x_tim.o(.text)
    TIM_ETRClockMode2Config                  0x080036bf   Thumb Code    32  stm32f10x_tim.o(.text)
    TIM_PrescalerConfig                      0x080036df   Thumb Code     6  stm32f10x_tim.o(.text)
    TIM_CounterModeConfig                    0x080036e5   Thumb Code    18  stm32f10x_tim.o(.text)
    TIM_EncoderInterfaceConfig               0x080036f7   Thumb Code    66  stm32f10x_tim.o(.text)
    TIM_ForcedOC1Config                      0x08003739   Thumb Code    18  stm32f10x_tim.o(.text)
    TIM_ForcedOC2Config                      0x0800374b   Thumb Code    26  stm32f10x_tim.o(.text)
    TIM_ForcedOC3Config                      0x08003765   Thumb Code    18  stm32f10x_tim.o(.text)
    TIM_ForcedOC4Config                      0x08003777   Thumb Code    26  stm32f10x_tim.o(.text)
    TIM_ARRPreloadConfig                     0x08003791   Thumb Code    24  stm32f10x_tim.o(.text)
    TIM_SelectCOM                            0x080037a9   Thumb Code    24  stm32f10x_tim.o(.text)
    TIM_SelectCCDMA                          0x080037c1   Thumb Code    24  stm32f10x_tim.o(.text)
    TIM_CCPreloadControl                     0x080037d9   Thumb Code    24  stm32f10x_tim.o(.text)
    TIM_OC1PreloadConfig                     0x080037f1   Thumb Code    18  stm32f10x_tim.o(.text)
    TIM_OC2PreloadConfig                     0x08003803   Thumb Code    26  stm32f10x_tim.o(.text)
    TIM_OC3PreloadConfig                     0x0800381d   Thumb Code    18  stm32f10x_tim.o(.text)
    TIM_OC4PreloadConfig                     0x0800382f   Thumb Code    26  stm32f10x_tim.o(.text)
    TIM_OC1FastConfig                        0x08003849   Thumb Code    18  stm32f10x_tim.o(.text)
    TIM_OC2FastConfig                        0x0800385b   Thumb Code    26  stm32f10x_tim.o(.text)
    TIM_OC3FastConfig                        0x08003875   Thumb Code    18  stm32f10x_tim.o(.text)
    TIM_OC4FastConfig                        0x08003887   Thumb Code    26  stm32f10x_tim.o(.text)
    TIM_ClearOC1Ref                          0x080038a1   Thumb Code    18  stm32f10x_tim.o(.text)
    TIM_ClearOC2Ref                          0x080038b3   Thumb Code    24  stm32f10x_tim.o(.text)
    TIM_ClearOC3Ref                          0x080038cb   Thumb Code    18  stm32f10x_tim.o(.text)
    TIM_ClearOC4Ref                          0x080038dd   Thumb Code    24  stm32f10x_tim.o(.text)
    TIM_OC1PolarityConfig                    0x080038f5   Thumb Code    18  stm32f10x_tim.o(.text)
    TIM_OC1NPolarityConfig                   0x08003907   Thumb Code    18  stm32f10x_tim.o(.text)
    TIM_OC2PolarityConfig                    0x08003919   Thumb Code    26  stm32f10x_tim.o(.text)
    TIM_OC2NPolarityConfig                   0x08003933   Thumb Code    26  stm32f10x_tim.o(.text)
    TIM_OC3PolarityConfig                    0x0800394d   Thumb Code    26  stm32f10x_tim.o(.text)
    TIM_OC3NPolarityConfig                   0x08003967   Thumb Code    26  stm32f10x_tim.o(.text)
    TIM_OC4PolarityConfig                    0x08003981   Thumb Code    26  stm32f10x_tim.o(.text)
    TIM_CCxCmd                               0x0800399b   Thumb Code    30  stm32f10x_tim.o(.text)
    TIM_CCxNCmd                              0x080039b9   Thumb Code    30  stm32f10x_tim.o(.text)
    TIM_SelectOCxM                           0x080039d7   Thumb Code    82  stm32f10x_tim.o(.text)
    TIM_UpdateDisableConfig                  0x08003a29   Thumb Code    24  stm32f10x_tim.o(.text)
    TIM_UpdateRequestConfig                  0x08003a41   Thumb Code    24  stm32f10x_tim.o(.text)
    TIM_SelectHallSensor                     0x08003a59   Thumb Code    24  stm32f10x_tim.o(.text)
    TIM_SelectOnePulseMode                   0x08003a71   Thumb Code    18  stm32f10x_tim.o(.text)
    TIM_SelectOutputTrigger                  0x08003a83   Thumb Code    18  stm32f10x_tim.o(.text)
    TIM_SelectSlaveMode                      0x08003a95   Thumb Code    18  stm32f10x_tim.o(.text)
    TIM_SelectMasterSlaveMode                0x08003aa7   Thumb Code    18  stm32f10x_tim.o(.text)
    TIM_SetCounter                           0x08003ab9   Thumb Code     4  stm32f10x_tim.o(.text)
    TIM_SetAutoreload                        0x08003abd   Thumb Code     4  stm32f10x_tim.o(.text)
    TIM_SetCompare1                          0x08003ac1   Thumb Code     4  stm32f10x_tim.o(.text)
    TIM_SetCompare2                          0x08003ac5   Thumb Code     4  stm32f10x_tim.o(.text)
    TIM_SetCompare3                          0x08003ac9   Thumb Code     4  stm32f10x_tim.o(.text)
    TIM_SetCompare4                          0x08003acd   Thumb Code     6  stm32f10x_tim.o(.text)
    TIM_SetClockDivision                     0x08003ad3   Thumb Code    18  stm32f10x_tim.o(.text)
    TIM_GetCapture1                          0x08003ae5   Thumb Code     6  stm32f10x_tim.o(.text)
    TIM_GetCapture2                          0x08003aeb   Thumb Code     6  stm32f10x_tim.o(.text)
    TIM_GetCapture3                          0x08003af1   Thumb Code     6  stm32f10x_tim.o(.text)
    TIM_GetCapture4                          0x08003af7   Thumb Code     8  stm32f10x_tim.o(.text)
    TIM_GetCounter                           0x08003aff   Thumb Code     6  stm32f10x_tim.o(.text)
    TIM_GetPrescaler                         0x08003b05   Thumb Code     6  stm32f10x_tim.o(.text)
    TIM_GetFlagStatus                        0x08003b0b   Thumb Code    18  stm32f10x_tim.o(.text)
    TIM_ClearFlag                            0x08003b1d   Thumb Code     6  stm32f10x_tim.o(.text)
    TIM_GetITStatus                          0x08003b23   Thumb Code    34  stm32f10x_tim.o(.text)
    TIM_ClearITPendingBit                    0x08003b45   Thumb Code     6  stm32f10x_tim.o(.text)
    WWDG_DeInit                              0x08003b4d   Thumb Code    22  stm32f10x_wwdg.o(.text)
    WWDG_SetPrescaler                        0x08003b63   Thumb Code    18  stm32f10x_wwdg.o(.text)
    WWDG_SetWindowValue                      0x08003b75   Thumb Code    34  stm32f10x_wwdg.o(.text)
    WWDG_EnableIT                            0x08003b97   Thumb Code     8  stm32f10x_wwdg.o(.text)
    WWDG_SetCounter                          0x08003b9f   Thumb Code    12  stm32f10x_wwdg.o(.text)
    WWDG_Enable                              0x08003bab   Thumb Code    12  stm32f10x_wwdg.o(.text)
    WWDG_GetFlagStatus                       0x08003bb7   Thumb Code    10  stm32f10x_wwdg.o(.text)
    WWDG_ClearFlag                           0x08003bc1   Thumb Code    10  stm32f10x_wwdg.o(.text)
    SystemInit                               0x08003cb1   Thumb Code    78  system_stm32f10x.o(.text)
    SystemCoreClockUpdate                    0x08003cff   Thumb Code   142  system_stm32f10x.o(.text)
    __aeabi_memclr4                          0x08003db1   Thumb Code     0  rt_memclr_w.o(.text)
    __aeabi_memclr8                          0x08003db1   Thumb Code     0  rt_memclr_w.o(.text)
    __rt_memclr_w                            0x08003db1   Thumb Code    78  rt_memclr_w.o(.text)
    _memset_w                                0x08003db5   Thumb Code     0  rt_memclr_w.o(.text)
    __use_two_region_memory                  0x08003dff   Thumb Code     2  heapauxi.o(.text)
    __rt_heap_escrow$2region                 0x08003e01   Thumb Code     2  heapauxi.o(.text)
    __rt_heap_expand$2region                 0x08003e03   Thumb Code     2  heapauxi.o(.text)
    __user_setup_stackheap                   0x08003e05   Thumb Code    74  sys_stackheap_outer.o(.text)
    exit                                     0x08003e4f   Thumb Code    12  exit.o(.text)
    __user_libspace                          0x08003e5d   Thumb Code     8  libspace.o(.text)
    __user_perproc_libspace                  0x08003e5d   Thumb Code     0  libspace.o(.text)
    __user_perthread_libspace                0x08003e5d   Thumb Code     0  libspace.o(.text)
    _sys_exit                                0x08003e65   Thumb Code     8  sys_exit.o(.text)
    __I$use$semihosting                      0x08003e71   Thumb Code     0  use_no_semi.o(.text)
    __use_no_semihosting_swi                 0x08003e71   Thumb Code     2  use_no_semi.o(.text)
    __semihosting_library_function           0x08003e73   Thumb Code     0  indicate_semi.o(.text)
    Region$$Table$$Base                      0x08003e74   Number         0  anon$$obj.o(Region$$Table)
    Region$$Table$$Limit                     0x08003e94   Number         0  anon$$obj.o(Region$$Table)
    g_Timer2Tick                             0x20000004   Data           4  variable.o(.data)
    g_UrIndex                                0x20000008   Data           1  variable.o(.data)
    g_CanLedSta                              0x2000000a   Data           4  variable.o(.data)
    SystemCoreClock                          0x20000024   Data           4  system_stm32f10x.o(.data)
    AHBPrescTable                            0x20000028   Data          16  system_stm32f10x.o(.data)
    g_Uart1Buff                              0x20000238   Data        1104  variable.o(.bss)
    g_Uart2Buff                              0x20000688   Data        1104  variable.o(.bss)
    g_Uart3Buff                              0x20000ad8   Data        1104  variable.o(.bss)
    g_ModParam                               0x20000f28   Data          33  variable.o(.bss)
    __libspace_start                         0x20000f4c   Data          96  libspace.o(.bss)
    __temporary_stack_top$libspace           0x20000fac   Data           0  libspace.o(.bss)



==============================================================================

Memory Map of the image

  Image Entry point : 0x08000131

  Load Region LR_IROM1 (Base: 0x08000000, Size: 0x00003ecc, Max: 0x00010000, ABSOLUTE)

    Execution Region ER_IROM1 (Base: 0x08000000, Size: 0x00003e94, Max: 0x00010000, ABSOLUTE)

    Base Addr    Size         Type   Attr      Idx    E Section Name        Object

    0x08000000   0x00000130   Data   RO          342    RESET               startup_stm32f10x_hd.o
    0x08000130   0x00000008   Code   RO          660  * !!!main             c_w.l(__main.o)
    0x08000138   0x00000034   Code   RO          814    !!!scatter          c_w.l(__scatter.o)
    0x0800016c   0x0000001a   Code   RO          816    !!handler_copy      c_w.l(__scatter_copy.o)
    0x08000186   0x00000002   PAD
    0x08000188   0x0000001c   Code   RO          818    !!handler_zi        c_w.l(__scatter_zi.o)
    0x080001a4   0x00000002   Code   RO          687    .ARM.Collect$$libinit$$00000000  c_w.l(libinit.o)
    0x080001a6   0x00000000   Code   RO          694    .ARM.Collect$$libinit$$00000002  c_w.l(libinit2.o)
    0x080001a6   0x00000000   Code   RO          697    .ARM.Collect$$libinit$$00000008  c_w.l(libinit2.o)
    0x080001a6   0x00000000   Code   RO          699    .ARM.Collect$$libinit$$0000000A  c_w.l(libinit2.o)
    0x080001a6   0x00000000   Code   RO          701    .ARM.Collect$$libinit$$0000000C  c_w.l(libinit2.o)
    0x080001a6   0x00000000   Code   RO          704    .ARM.Collect$$libinit$$0000000F  c_w.l(libinit2.o)
    0x080001a6   0x00000000   Code   RO          706    .ARM.Collect$$libinit$$00000011  c_w.l(libinit2.o)
    0x080001a6   0x00000000   Code   RO          708    .ARM.Collect$$libinit$$00000013  c_w.l(libinit2.o)
    0x080001a6   0x00000000   Code   RO          710    .ARM.Collect$$libinit$$00000015  c_w.l(libinit2.o)
    0x080001a6   0x00000000   Code   RO          712    .ARM.Collect$$libinit$$00000017  c_w.l(libinit2.o)
    0x080001a6   0x00000000   Code   RO          714    .ARM.Collect$$libinit$$00000019  c_w.l(libinit2.o)
    0x080001a6   0x00000000   Code   RO          716    .ARM.Collect$$libinit$$0000001B  c_w.l(libinit2.o)
    0x080001a6   0x00000000   Code   RO          718    .ARM.Collect$$libinit$$0000001D  c_w.l(libinit2.o)
    0x080001a6   0x00000000   Code   RO          720    .ARM.Collect$$libinit$$0000001F  c_w.l(libinit2.o)
    0x080001a6   0x00000000   Code   RO          722    .ARM.Collect$$libinit$$00000021  c_w.l(libinit2.o)
    0x080001a6   0x00000000   Code   RO          724    .ARM.Collect$$libinit$$00000023  c_w.l(libinit2.o)
    0x080001a6   0x00000000   Code   RO          728    .ARM.Collect$$libinit$$0000002A  c_w.l(libinit2.o)
    0x080001a6   0x00000000   Code   RO          730    .ARM.Collect$$libinit$$0000002C  c_w.l(libinit2.o)
    0x080001a6   0x00000000   Code   RO          732    .ARM.Collect$$libinit$$0000002E  c_w.l(libinit2.o)
    0x080001a6   0x00000000   Code   RO          734    .ARM.Collect$$libinit$$00000030  c_w.l(libinit2.o)
    0x080001a6   0x00000002   Code   RO          735    .ARM.Collect$$libinit$$00000031  c_w.l(libinit2.o)
    0x080001a8   0x00000002   Code   RO          755    .ARM.Collect$$libshutdown$$00000000  c_w.l(libshutdown.o)
    0x080001aa   0x00000000   Code   RO          769    .ARM.Collect$$libshutdown$$00000003  c_w.l(libshutdown2.o)
    0x080001aa   0x00000000   Code   RO          772    .ARM.Collect$$libshutdown$$00000006  c_w.l(libshutdown2.o)
    0x080001aa   0x00000000   Code   RO          775    .ARM.Collect$$libshutdown$$00000009  c_w.l(libshutdown2.o)
    0x080001aa   0x00000000   Code   RO          777    .ARM.Collect$$libshutdown$$0000000B  c_w.l(libshutdown2.o)
    0x080001aa   0x00000000   Code   RO          780    .ARM.Collect$$libshutdown$$0000000E  c_w.l(libshutdown2.o)
    0x080001aa   0x00000002   Code   RO          781    .ARM.Collect$$libshutdown$$0000000F  c_w.l(libshutdown2.o)
    0x080001ac   0x00000000   Code   RO          662    .ARM.Collect$$rtentry$$00000000  c_w.l(rtentry.o)
    0x080001ac   0x00000000   Code   RO          664    .ARM.Collect$$rtentry$$00000002  c_w.l(rtentry2.o)
    0x080001ac   0x00000006   Code   RO          676    .ARM.Collect$$rtentry$$00000004  c_w.l(rtentry4.o)
    0x080001b2   0x00000000   Code   RO          666    .ARM.Collect$$rtentry$$00000009  c_w.l(rtentry2.o)
    0x080001b2   0x00000004   Code   RO          667    .ARM.Collect$$rtentry$$0000000A  c_w.l(rtentry2.o)
    0x080001b6   0x00000000   Code   RO          669    .ARM.Collect$$rtentry$$0000000C  c_w.l(rtentry2.o)
    0x080001b6   0x00000008   Code   RO          670    .ARM.Collect$$rtentry$$0000000D  c_w.l(rtentry2.o)
    0x080001be   0x00000002   Code   RO          691    .ARM.Collect$$rtexit$$00000000  c_w.l(rtexit.o)
    0x080001c0   0x00000000   Code   RO          737    .ARM.Collect$$rtexit$$00000002  c_w.l(rtexit2.o)
    0x080001c0   0x00000004   Code   RO          738    .ARM.Collect$$rtexit$$00000003  c_w.l(rtexit2.o)
    0x080001c4   0x00000006   Code   RO          739    .ARM.Collect$$rtexit$$00000004  c_w.l(rtexit2.o)
    0x080001ca   0x00000002   PAD
    0x080001cc   0x000001dc   Code   RO            1    .text               adc.o
    0x080003a8   0x000002b4   Code   RO          182    .text               i2c.o
    0x0800065c   0x000000a4   Code   RO          194    .text               intermit.o
    0x08000700   0x00000050   Code   RO          221    .text               nvic.o
    0x08000750   0x00000254   Code   RO          245    .text               tim.o
    0x080009a4   0x00000092   Code   RO          269    .text               wdg.o
    0x08000a36   0x00000002   PAD
    0x08000a38   0x00000244   Code   RO          296    .text               flash.o
    0x08000c7c   0x00000064   Code   RO          311    .text               main.o
    0x08000ce0   0x00000040   Code   RO          343    .text               startup_stm32f10x_hd.o
    0x08000d20   0x000000dc   Code   RO          348    .text               misc.o
    0x08000dfc   0x0000044e   Code   RO          360    .text               stm32f10x_adc.o
    0x0800124a   0x00000002   PAD
    0x0800124c   0x000009e8   Code   RO          384    .text               stm32f10x_can.o
    0x08001c34   0x000005bc   Code   RO          468    .text               stm32f10x_flash.o
    0x080021f0   0x00000358   Code   RO          492    .text               stm32f10x_gpio.o
    0x08002548   0x00000404   Code   RO          504    .text               stm32f10x_i2c.o
    0x0800294c   0x00000040   Code   RO          516    .text               stm32f10x_iwdg.o
    0x0800298c   0x000003a4   Code   RO          540    .text               stm32f10x_rcc.o
    0x08002d30   0x00000e1a   Code   RO          590    .text               stm32f10x_tim.o
    0x08003b4a   0x00000002   PAD
    0x08003b4c   0x00000088   Code   RO          614    .text               stm32f10x_wwdg.o
    0x08003bd4   0x000001dc   Code   RO          636    .text               system_stm32f10x.o
    0x08003db0   0x0000004e   Code   RO          656    .text               c_w.l(rt_memclr_w.o)
    0x08003dfe   0x00000006   Code   RO          658    .text               c_w.l(heapauxi.o)
    0x08003e04   0x0000004a   Code   RO          678    .text               c_w.l(sys_stackheap_outer.o)
    0x08003e4e   0x0000000c   Code   RO          680    .text               c_w.l(exit.o)
    0x08003e5a   0x00000002   PAD
    0x08003e5c   0x00000008   Code   RO          688    .text               c_w.l(libspace.o)
    0x08003e64   0x0000000c   Code   RO          747    .text               c_w.l(sys_exit.o)
    0x08003e70   0x00000002   Code   RO          758    .text               c_w.l(use_no_semi.o)
    0x08003e72   0x00000000   Code   RO          760    .text               c_w.l(indicate_semi.o)
    0x08003e72   0x00000002   PAD
    0x08003e74   0x00000020   Data   RO          812    Region$$Table       anon$$obj.o


    Execution Region RW_IRAM1 (Base: 0x20000000, Size: 0x000015b0, Max: 0x00005000, ABSOLUTE)

    Base Addr    Size         Type   Attr      Idx    E Section Name        Object

    0x20000000   0x00000002   Data   RW          298    .data               flash.o
    0x20000002   0x00000002   PAD
    0x20000004   0x0000000a   Data   RW          324    .data               variable.o
    0x2000000e   0x00000014   Data   RW          541    .data               stm32f10x_rcc.o
    0x20000022   0x00000002   PAD
    0x20000024   0x00000014   Data   RW          637    .data               system_stm32f10x.o
    0x20000038   0x00000200   Zero   RW          297    .bss                flash.o
    0x20000238   0x00000d11   Zero   RW          323    .bss                variable.o
    0x20000f49   0x00000003   PAD
    0x20000f4c   0x00000060   Zero   RW          689    .bss                c_w.l(libspace.o)
    0x20000fac   0x00000004   PAD
    0x20000fb0   0x00000200   Zero   RW          341    HEAP                startup_stm32f10x_hd.o
    0x200011b0   0x00000400   Zero   RW          340    STACK               startup_stm32f10x_hd.o


==============================================================================

Image component sizes


      Code (inc. data)   RO Data    RW Data    ZI Data      Debug   Object Name

       476          8          0          0          0     284619   adc.o
       580         18          0          2        512       2906   flash.o
       692         26          0          0          0       1742   i2c.o
       164         18          0          0          0       1833   intermit.o
       100          6          0          0          0       1076   main.o
       220         20          0          0          0       1745   misc.o
        80          0          0          0          0        588   nvic.o
        64         26        304          0       1536        816   startup_stm32f10x_hd.o
      1102         26          0          0          0      10781   stm32f10x_adc.o
      2536         36          0          0          0       7796   stm32f10x_can.o
      1468         34          0          0          0       7978   stm32f10x_flash.o
       856         40          0          0          0       5593   stm32f10x_gpio.o
      1028         16          0          0          0       9051   stm32f10x_i2c.o
        64          6          0          0          0       1241   stm32f10x_iwdg.o
       932         44          0         20          0       8740   stm32f10x_rcc.o
      3610         88          0          0          0      22076   stm32f10x_tim.o
       136         10          0          0          0       2244   stm32f10x_wwdg.o
       476         36          0         20          0       1803   system_stm32f10x.o
       596         18          0          0          0       1426   tim.o
         0          0          0         10       3345       1371   variable.o
       146          0          0          0          0       1352   wdg.o

    ----------------------------------------------------------------------
     15332        476        336         56       5396     376777   Object Totals
         0          0         32          0          0          0   (incl. Generated)
         6          0          0          4          3          0   (incl. Padding)

    ----------------------------------------------------------------------

      Code (inc. data)   RO Data    RW Data    ZI Data      Debug   Library Member Name

         8          0          0          0          0         68   __main.o
        52          8          0          0          0          0   __scatter.o
        26          0          0          0          0          0   __scatter_copy.o
        28          0          0          0          0          0   __scatter_zi.o
        12          0          0          0          0         72   exit.o
         6          0          0          0          0        152   heapauxi.o
         0          0          0          0          0          0   indicate_semi.o
         2          0          0          0          0          0   libinit.o
         2          0          0          0          0          0   libinit2.o
         2          0          0          0          0          0   libshutdown.o
         2          0          0          0          0          0   libshutdown2.o
         8          4          0          0         96         68   libspace.o
        78          0          0          0          0         80   rt_memclr_w.o
         0          0          0          0          0          0   rtentry.o
        12          0          0          0          0          0   rtentry2.o
         6          0          0          0          0          0   rtentry4.o
         2          0          0          0          0          0   rtexit.o
        10          0          0          0          0          0   rtexit2.o
        12          4          0          0          0         68   sys_exit.o
        74          0          0          0          0         80   sys_stackheap_outer.o
         2          0          0          0          0         68   use_no_semi.o

    ----------------------------------------------------------------------
       352         16          0          0        100        656   Library Totals
         8          0          0          0          4          0   (incl. Padding)

    ----------------------------------------------------------------------

      Code (inc. data)   RO Data    RW Data    ZI Data      Debug   Library Name

       344         16          0          0         96        656   c_w.l

    ----------------------------------------------------------------------
       352         16          0          0        100        656   Library Totals

    ----------------------------------------------------------------------

==============================================================================


      Code (inc. data)   RO Data    RW Data    ZI Data      Debug   

     15684        492        336         56       5496     375041   Grand Totals
     15684        492        336         56       5496     375041   ELF Image Totals
     15684        492        336         56          0          0   ROM Totals

==============================================================================

    Total RO  Size (Code + RO Data)                16020 (  15.64kB)
    Total RW  Size (RW Data + ZI Data)              5552 (   5.42kB)
    Total ROM Size (Code + RO Data + RW Data)      16076 (  15.70kB)

==============================================================================

